:040000000FEF02F00C
:1000080000C016F001C015F09EAC22D09E9CC2A480
:1000180005D0C4CF2FF0C4CF8CFF18D0C4CF2DF09B
:10002800000E2E6E2D362D902E362D362D902E3616
:10003800060E016EC3CF00F0015004E00032009EAE
:10004800FF0FFBD700502D12000E2E12010E2C6E42
:0A00580016C000F015C001F0110001
:0A006200210E0D6E0D2EFED71200C8
:10006C000F0E0C6E470E0D6E0D2EFED70C2EFCD700
:06007C000000000012006C
:0600820000000000120066
:10008800086A096A100E0C6E0134083609360450E5
:10009800085E0550D8A0053C095ED8B007D00450CA
:1000A80008260550D8B0053C0926D89000360136F8
:0600B8000C2EEAD7120035
:1000BE0052BE02D08A9601D08A8652BC02D08A9451
:1000CE0001D08A8452BA02D08A9201D08A8252B862
:1000DE0002D08A9001D08A8030B002D08A8801D0B6
:1000EE008A988A8AC7DF8A9A52B602D08A9601D037
:1000FE008A8652B402D08A9401D08A8452B202D037
:10010E008A9201D08A8252B002D08A9001D08A801F
:10011E0030B002D08A8801D08A988A8AABDF8A9A58
:0C012E0030A002D09CDF01D095DF120051
:10013A004F6A050E4F5C0AE24F504D24E16E000EE5
:10014A004E20E26E200EE66E4F2AF3D74F504D2412
:10015A00E16E000E4E20E26EE66A4F064F504D24C5
:10016A00506E000E4E20516E0A0E046E000E056E81
:10017A004BC000F04CC001F082DF08C000F009C09B
:10018A0001F0300E002650C0E1FF51C0E2FF00C06E
:10019A00E6FF0A0E046E000E056E4BC000F04CC05E
:1001AA0001F06DDF00C04BF001C04CF0000E0118E9
:1001BA0002E1000E001801E102D04F06CFD712006B
:0C01CA0030904BC052F076DF3080120005
:1001D600939A939893909392939493968A9A8A98E3
:1001E6008A968A948A928A903EDF3DDF3CDF8A8235
:1001F6008A808A8A43DF8A9A36DF8A8A3FDF8A9A2A
:1002060032DF8A8A3BDF8A9A2EDF8A908A8A36DF35
:100216008A9A29DF8A8A32DF8A9A8A928A868A8A23
:100226002DDF8A9A20DF8A968A808A8A27DF8A9A31
:100236008A908A8A23DF8A9A16DF8A8A1FDF8A9A39
:100246008A808A8A1BDF8A9A0EDF8A908A8A16DF5C
:100256008A9A8A868A848A828A808A8A0FDF8A9A1A
:0602660002DF30801200EF
:10026C000900F5CFE6FF0006FBE10106F9E11200FB
:10027C000FD0800E416E19D0C00E416E16D0940E68
:10028C00416E13D0D40E416E10D0800E416E0DD045
:10029C004150010AEEE04150020AEEE04150030ADF
:1002AC00EEE04150040AEEE0F0D74204006E4150FB
:1002BC00002600C041F000C052F0FBDE3090456AD1
:1002CC0045504324E96E000E4420EA6EEE520BE0DA
:1002DC0045504324E96E000E4420EA6EEECF4BF0FD
:0A02EC006EDF452AEDD730801200C6
:1002F6000B6A0A6A096A00500402F4CF09F0F3CFC8
:1003060008F001500502F4CF0BF0F3CF0AF00050CD
:100316000502F3500926F4500A22E86A0B2201501E
:100326000402F3500926F4500A22E86A0B2208C098
:1003360000F009C001F00AC002F00BC003F0120081
:10034600476A486A41C049F042C04AF0800E4218E6
:10035600006E800E005C02E1000E415C0BE2010EB5
:10036600476E000E486E41500008496E42C04AF082
:10037600000E4A5649C04BF04AC04CF043C04DF0FF
:1003860044C04EF0D7DE060E456E000E466E000ED9
:10039600006E4650005C02E14550000819E24550E7
:1003A6004324E16E46504420E26E010E455C006E29
:1003B600000E4658016E00504324E96E0150442059
:1003C600EA6EEECFE6FF010E455E000E465ADFD717
:1003D60043C0E1FF44C0E2FF200EE66E47504810DE
:1003E6001AE0456A466A45504324E96E4650442061
:1003F600EA6EEE50200A03E1454A462AF4D7010E7A
:10040600455E000E465A45504324E16E4650442050
:08041600E26E2D0EE66E1200ED
:10041E00E8EC02F0316A326A336A346A356A366A57
:10042E00376A386A396A3A6A3B6A3C6A3D6A3E6A9A
:10043E003F6AF10E0F01386F9684928292849286F3
:10044E00956A080E486FFF0EBB6E0C0E546F070EAA
:10045E004A6F556B9694C294C296C298C29AC29C29
:10046E00C080C092C084C096C098C08AC09EC28010
:10047E009D8C9E9CF28CF28EA7DE010E526E18DEC3
:10048E000C0E526E15DE010E416E010E426E170EEF
:10049E00436E000E446EEBDE020E416E010E426E96
:1004AE00220E436E000E446EE2DEC282401C006ECF
:1004BE0000508014016E01A614D0312A408631C03E
:1004CE0041F0000E426E320E436E000E446E34DF6B
:1004DE00010E416E0B0E426E320E436E000E446ED6
:1004EE00C6DE401C006E00508014016E01A214D0B6
:1004FE003106408231C041F0000E426E320E436E24
:10050E00000E446E19DF010E416E0B0E426E320E5E
:10051E00436E000E446EABDE401C006E0050801425
:10052E00016E01A412D0316A4084416A426A320ED1
:10053E00436E000E446E00DF010E416E0B0E426ED6
:10054E00320E436E000E446E92DE805040162C52D8
:10055E0023E02C6A2DC000F02EC001F0050E046EB3
:10056E00000E056EC1DE00C041F001C042F0390E32
:10057E00436E000E446EE0DE020E416E0B0E426EB6
:10058E00390E436E000E446E72DE2FC055FFC274DC
:0C059E00C276C278C27AC28289D7FFD729
:1005D00010EE17F0160E006E010E016EAA0EF66EEA
:0E05E000050EF76E000EF86E36EC01F01200FC
:0B05AA00636F6E74656767696F3A004D
:0A05B50074656E73696F6E653A009D
:0105BF00003B
:0105C000003A
:0705C1000000000000000033
:0705C800000000000000002C
:020000040030CA
:0D000100231F3CFFBF81FF0FC00FE00F4029
:00000001FF
