:10000000C4EF01F00000000000EF00F0000000006D
:0A0010000000000000000000F3D71C
:10001C000F0E0C6E470E0D6E0D2EFED70C2EFCD750
:06002C00000000001200BC
:0A003200210E0D6E0D2EFED71200F8
:06003C00000000001200AC
:1000420035BE02D08A9601D08A8635BC02D08A9407
:1000520001D08A8435BA02D08A9201D08A8235B818
:1000620002D08A9001D08A801AB002D08A8801D048
:100072008A988A8AE2DF8A9A35B602D08A9601D0B5
:100082008A8635B402D08A9401D08A8435B202D0ED
:100092008A9201D08A8235B002D08A9001D08A80B9
:1000A2001AB002D08A8801D08A988A8AC6DF8A9AD0
:0C00B2001AA002D0B2DF01D0BBDF1200A8
:1000BE00086A096A100E0C6E0134083609360450AF
:1000CE00085E0550D8A0053C095ED8B007D0045094
:1000DE0008260550D8B0053C0926D89000360136C2
:0600EE000C2EEAD71200FF
:1000F400326A050E325C0AE232503024E16E000EA0
:100104003120E26E200EE66E322AF3D732503024CC
:10011400E16E000E3120E26EE66A3206325030247F
:10012400336E000E3120346E0A0E046E000E056E1E
:100134002EC000F02FC001F0C0DF08C000F009C0DD
:1001440001F0300E002633C0E1FF34C0E2FF00C0EE
:10015400E6FF0A0E046E000E056E2EC000F02FC0DE
:1001640001F0ABDF00C02EF001C02FF0000E01182B
:1001740002E1000E001801E102D03206CFD71200CE
:0C0184001A902EC035F05BDF1A801200CC
:10019000939A939893909392939493968A9A8A9829
:1001A0008A968A948A928A9039DF38DF37DF8A828A
:1001B0008A808A8A43DF8A9A31DF8A8A3FDF8A9A75
:1001C0002DDF8A8A3BDF8A9A29DF8A908A8A36DF86
:1001D0008A9A24DF8A8A32DF8A9A8A928A868A8A6F
:1001E0002DDF8A9A1BDF8A968A808A8A27DF8A9A7D
:1001F0008A908A8A23DF8A9A11DF8A8A1FDF8A9A85
:100200008A808A8A1BDF8A9A09DF8A908A8A16DFA7
:100210008A9A8A868A848A828A808A8A0FDF8A9A60
:06022000FDDE1A80120051
:100226000900F5CFE6FF0006FBE10106F9E1120041
:100236002A6A2B6A24C02CF025C02DF0800E2518C2
:10024600006E800E005C02E1000E245C0BE2010EE3
:100256002A6E000E2B6E245000082C6E25C02DF041
:10026600000E2D562CC02EF02DC02FF026C030F0DB
:1002760027C031F03CDF060E286E000E296E000EF8
:10028600006E2950005C02E12850000819E228504F
:100296002624E16E29502720E26E010E285C006EAE
:1002A600000E2958016E00502624E96E01502720C1
:1002B600EA6EEECFE6FF010E285E000E295ADFD762
:1002C60026C0E1FF27C0E2FF200EE66E2A502B1063
:1002D6001AE0286A296A28502624E96E2950272020
:1002E600EA6EEE50200A03E1284A292AF4D7010EC5
:1002F600285E000E295A28502624E16E2950272010
:08030600E26E2D0EE66E1200FE
:10030E000FD0800E246E19D0C00E246E16D0940E0F
:10031E00246E13D0D40E246E10D0800E246E0DD009
:10032E002450010AEEE02450020AEEE02450030AA3
:10033E00EEE02450040AEEE0F0D72504006E2450BF
:10034E00002600C024F000C035F074DE1A90286A32
:10035E0028502624E96E000E2720EA6EEE520BE09E
:10036E0028502624E96E000E2720EA6EEECF2EF0DE
:0A037E0002DF282AEDD71A801200D2
:10038800630E156E690E166E610E176E6F0E186E7F
:10039800196A1C6A1D6A1E6A1F6A206A216A226A13
:1003A800236AF10E0F01386FFF0E926EEDDE010E1B
:1003B800356E43DE0C0E356E40DE010E246E010EE6
:1003C800256E1D0E266E000E276E9DDF1B1C006E0F
:1003D80000508014016E01A614D01C2A1B861D0E25
:1003E800246E000E256E1CC026F0000E276E1FDF3F
:1003F800010E246E010E256E1D0E266E000E276E50
:1004080082DF1B1C006E00508014016E01A214D004
:100418001C061B821D0E246E000E256E1CC026F0C5
:10042800000E276E04DF010E246E010E256E1D0ED0
:10043800266E000E276E67DF1B1C006E00508014AE
:10044800016E01A412D01C6A1B841D0E246E000EBE
:10045800256E266A276AEBDE010E246E010E256ED4
:100468001D0E266E000E276E4EDF010E246E010E45
:10047800256E150E266E000E276E45DF80501B1662
:04048800A5D7FFD71E
:020000040030CA
:0D000100231F3CFFBF81FF0FC00FE00F4029
:00000001FF
