:04000000DCEF01F040
:1000080000C015F09EA41BD08C50010F006E00C0DC
:100018008CFF9E94BDA005D0010E266E000E276EA3
:1000280002D0266A276ABD7028C016F029C017F0CA
:10003800BFCF29F0286ABE502812000E291215C019
:0400480000F01100B3
:10004C000F0E0C6E470E0D6E0D2EFED70C2EFCD720
:06005C000000000012008C
:0A006200210E0D6E0D2EFED71200C8
:06006C000000000012007C
:100072003CBE02D08A9601D08A863CBC02D08A94C9
:1000820001D08A843CBA02D08A9201D08A823CB8DA
:1000920002D08A9001D08A802AB002D08A8801D008
:1000A2008A988A8AE2DF8A9A3CB602D08A9601D07E
:1000B2008A863CB402D08A9401D08A843CB202D0AF
:1000C2008A9201D08A823CB002D08A9001D08A8082
:1000D2002AB002D08A8801D08A988A8AC6DF8A9A90
:0C00E2002AA002D0B2DF01D0BBDF120068
:1000EE00086A096A100E0C6E01340836093604507F
:1000FE00085E0550D8A0053C095ED8B007D0045064
:10010E0008260550D8B0053C0926D8900036013691
:06011E000C2EEAD71200CE
:10012400396A050E395C0AE239503724E16E000E53
:100134003820E26E200EE66E392AF3D73950372480
:10014400E16E000E3820E26EE66A39063950372433
:100154003A6E000E38203B6E0A0E046E000E056ED9
:1001640035C000F036C001F0C0DF08C000F009C09F
:1001740001F0300E00263AC0E1FF3BC0E2FF00C0B0
:10018400E6FF0A0E046E000E056E35C000F036C0A0
:1001940001F0ABDF00C035F001C036F0000E0118ED
:1001A40002E1000E001801E102D03906CFD7120097
:0C01B4002A9035C03CF05BDF2A8012006E
:1001C000939A939893909392939493968A9A8A98F9
:1001D0008A968A948A928A9039DF38DF37DF8A825A
:1001E0008A808A8A43DF8A9A31DF8A8A3FDF8A9A45
:1001F0002DDF8A8A3BDF8A9A29DF8A908A8A36DF56
:100200008A9A24DF8A8A32DF8A9A8A928A868A8A3E
:100210002DDF8A9A1BDF8A968A808A8A27DF8A9A4C
:100220008A908A8A23DF8A9A11DF8A8A1FDF8A9A54
:100230008A808A8A1BDF8A9A09DF8A908A8A16DF77
:100240008A9A8A868A848A828A808A8A0FDF8A9A30
:06025000FDDE2A80120011
:100256000900F5CFE6FF0006FBE10106F9E1120011
:10026600316A326A2BC033F02CC034F0800E2C1861
:10027600006E800E005C02E1000E2B5C0BE2010EAC
:10028600316E000E326E2B500008336E2CC034F0E7
:10029600000E345633C035F034C036F02DC037F07A
:1002A6002EC038F03CDF060E2F6E000E306E000EAC
:1002B600006E3050005C02E12F50000819E22F500A
:1002C6002D24E16E30502E20E26E010E2F5C006E62
:1002D600000E3058016E00502D24E96E01502E207C
:1002E600EA6EEECFE6FF010E2F5E000E305ADFD724
:1002F6002DC0E1FF2EC0E2FF200EE66E3150321017
:100306001AE02F6A306A2F502D24E96E30502E20C5
:10031600EA6EEE50200A03E12F4A302AF4D7010E86
:100326002F5E000E305A2F502D24E16E30502E20B5
:08033600E26E2D0EE66E1200CE
:10033E000FD0800E2B6E19D0C00E2B6E16D0940ED1
:10034E002B6E13D0D40E2B6E10D0800E2B6E0DD0C4
:10035E002B50010AEEE02B50020AEEE02B50030A5E
:10036E00EEE02B50040AEEE0F0D72C04006E2B507A
:10037E00002600C02BF000C03CF074DE2A902F6ADD
:10038E002F502D24E96E000E2E20EA6EEE520BE059
:10039E002F502D24E96E000E2E20EA6EEECF35F092
:0A03AE0002DF2F2AEDD72A8012008B
:1003B80021EC02F0949C8B8C0F013A95BD96BD847C
:1003C800BD92BD8049934991130ECD6E9D849E9434
:1003D800F28CF28EF1DE010E3C6E47DE0C0E3C6EA6
:1003E80044DE010E2B6E010E2C6E1F0E2D6E000EBC
:1003F8002E6EA1DF2650271014E11650285C2B6EB4
:10040800175029582C6E180E2D6E000E2E6E27DFF1
:10041800010E2B6E0B0E2C6E180E2D6E000E2E6E0E
:060428008ADFE8D7FFD7D0
:1004420010EE16F0140E006E010E016E2E0EF66EF8
:0E045200040EF76E000EF86E2BEC01F0120097
:02042E000000CC
:0704300000000000000000C5
:07043700645B6D6D5D3A008E
:02043E000100BB
:020440000000BA
:020000040030CA
:0D000100231F3CFFBF81FF0FC00FE00F4029
:00000001FF
