:040000001CEF02F0FF
:1000080000C017F001C016F002C015F080A60FD08E
:10001800800E1918006E800E030A005C02E1E80EDB
:10002800185C05E2320E1826000E19220FD080A89F
:100038000DD0800E006E800E1918005C02E1185079
:10004800640804E2320E185E000E195A80A404D027
:10005800206A010E216E0AD080A204D0010E206E03
:10006800216A04D080A002D0206A216AF2A423D099
:10007800F294200E1A26000E1B22200E1E26000EB9
:100088001F22000E1C24016E030E1D20026E01C0EB
:100098001CF002C01DF0800E0218006E800E030ACC
:1000A800005C02E1E80E015C06E31A4A1B2A1E4ABC
:1000B8001F2A1C6A1D6A17C000F016C001F015C07F
:0400C80002F0110031
:0600CC000000000012001C
:1000D2000F0E0C6E470E0D6E0D2EFED70C2EFCD79A
:0600E20000000000120006
:0A00E800210E0D6E0D2EFED7120042
:1000F200086A096A100E0C6E01340836093604507B
:10010200085E0550D8A0053C095ED8B007D004505F
:1001120008260550D8B0053C0926D890003601368D
:060122000C2EEAD71200CA
:1001280041BE02D08A9601D08A8641BC02D08A9408
:1001380001D08A8441BA02D08A9201D08A8241B819
:1001480002D08A9001D08A8022B002D08A8801D059
:100158008A988A8AB7DF8A9A41B602D08A9601D0ED
:100168008A8641B402D08A9401D08A8441B202D0EE
:100178008A9201D08A8241B002D08A9001D08A80C6
:1001880022B002D08A8801D08A988A8A9BDF8A9A0C
:0C01980022A002D09ADF01D0A3DF1200E9
:0C01A40022903AC041F0BEDF2280120021
:1001B0003E6A050E3E5C0AE23E503C24E16E000EB3
:1001C0003D20E26E200EE66E3E2AF3D73E503C24E0
:1001D000E16E000E3D20E26EE66A3E063E503C2493
:1001E0003F6E000E3D20406E0A0E046E000E056E3E
:1001F0003AC000F03BC001F07CDF08C000F009C04D
:1002000001F0300E00263FC0E1FF40C0E2FF00C019
:10021000E6FF0A0E046E000E056E3AC000F03BC009
:1002200001F067DF00C03AF001C03BF0000E01189A
:1002300002E1000E001801E102D03E06CFD7120005
:10024000939A939893909392939493968A9A8A9878
:100250008A968A948A928A903CDF3BDF3ADF8A82D0
:100260008A808A8A33DF8A9A34DF8A8A2FDF8A9AE1
:1002700030DF8A8A2BDF8A9A2CDF8A908A8A26DFEF
:100280008A9A27DF8A8A22DF8A9A8A928A868A8ACB
:100290001DDF8A9A1EDF8A968A808A8A17DF8A9AE9
:1002A0008A908A8A13DF8A9A14DF8A8A0FDF8A9AF1
:1002B0008A808A8A0BDF8A9A0CDF8A908A8A06DF14
:1002C0008A9A8A868A848A828A808A8AFFDE8A9AC1
:0602D00000DF2280120095
:1002D6000900F5CFE6FF0006FBE10106F9E1120091
:1002E6000FD0800E306E19D0C00E306E16D0940E20
:1002F600306E13D0D40E306E10D0800E306E0DD00E
:100306003050010AEEE03050020AEEE03050030AA7
:10031600EEE03050040AEEE0F0D73104006E3050C3
:10032600002600C030F000C041F0FBDE2290346AA7
:1003360034503224E96E000E3320EA6EEE520BE0A2
:1003460034503224E96E000E3320EA6EEECF3AF0D6
:0A03560026DF342AEDD722801200C2
:10036000366A376A30C038F031C039F0800E311843
:10037000006E800E005C02E1000E305C0BE2010EAC
:10038000366E000E376E30500008386E31C039F0CE
:10039000000E395638C03AF039C03BF032C03CF05C
:1003A00033C03DF005DF060E346E000E356E000ED4
:1003B000006E3550005C02E13450000819E2345000
:1003C0003224E16E35503320E26E010E345C006E53
:1003D000000E3558016E00503224E96E0150332072
:1003E000EA6EEECFE6FF010E345E000E355ADFD71F
:1003F00032C0E1FF33C0E2FF200EE66E3650371008
:100400001AE0346A356A34503224E96E35503320AC
:10041000EA6EEE50200A03E1344A352AF4D7010E81
:10042000345E000E355A34503224E16E355033209C
:08043000E26E2D0EE66E1200D3
:10043800C80E186E196A1A6A1B6A1C6A1D6A1E6A37
:100448001F6A206A216A2A6A2B6A2C6A0F0E2D6E8F
:100458002E6A2F6A956A810E8C6E1F0E926EE00EC0
:100468000F01386FC70ED56EA00EF26E080E2B6EF8
:10047800010E2C6EE1DE010E416E52DE0C0E416E55
:100488004FDE2EC030F0000E316E230E326E000E9D
:10049800336E62DF010E306E0B0E316E230E326E3C
:1004A800000E336E1CDF800E1B18006E800E1918AC
:1004B800005C02E118501A5C38E32B500F0A06E181
:1004C8002C500F0A03E1010E2A6E07D02B50000AA8
:1004D80004E12C50000AD8B42A6A2A50000A0AE11A
:1004E8002C362C902B322B9E2BBC2B8E2C2A080EB4
:1004F8002B260AD02B362B902C322C9E2CBC2C8EE3
:100508002D502B162D502C16040E016E2BC000F00A
:10051800015004E000360090FF0FFBD72C5000106C
:100528008C6E18501A5E19501B5A800E1F18006ED8
:10053800800E030A005C02E1E80E1E5C23E32152F0
:1005480003E12052D8B42E2A2152D8A42E6A2E5064
:100558002F1812E02EC030F0000E316E230E326ECE
:10056800000E336EF9DE010E306E0B0E316E230E67
:10057800326E000E336EB3DEE80E1E5E030E1F5A97
:080588002EC02FF090D7FFD721
:020000040030CA
:0D000100231F3CFFBF81FF0FC00FE00F4029
:00000001FF
