:040000000AEF02F011
:1000080000C016F001C015F09EAC1DD0C4CF2AF078
:10001800000E2B6E2A362A902B362A362A902B363B
:10002800060E016EC3CF00F0015004E00032009EBE
:10003800FF0FFBD700502A26000E2B22010E276E39
:10004800000E286E9E9C16C000F015C001F011002D
:0A005800210E0D6E0D2EFED71200D2
:100062000F0E0C6E470E0D6E0D2EFED70C2EFCD70A
:0600720000000000120076
:0600780000000000120070
:10007E00086A096A100E0C6E0134083609360450EF
:10008E00085E0550D8A0053C095ED8B007D00450D4
:10009E0008260550D8B0053C0926D8900036013602
:0600AE000C2EEAD712003F
:1000B4003DBE02D08A9601D08A863DBC02D08A9485
:1000C40001D08A843DBA02D08A9201D08A823DB896
:1000D40002D08A9001D08A8029B002D08A8801D0C7
:1000E4008A988A8AC7DF8A9A3DB602D08A9601D056
:1000F4008A863DB402D08A9401D08A843DB202D06B
:100104008A9201D08A823DB002D08A9001D08A803E
:1001140029B002D08A8801D08A988A8AABDF8A9A69
:0C01240029A002D09CDF01D095DF120062
:100130003A6A050E3A5C0AE23A503824E16E000E43
:100140003920E26E200EE66E3A2AF3D73A50382470
:10015000E16E000E3920E26EE66A3A063A50382423
:100160003B6E000E39203C6E0A0E046E000E056ECA
:1001700036C000F037C001F082DF08C000F009C0CF
:1001800001F0300E00263BC0E1FF3CC0E2FF00C0A2
:10019000E6FF0A0E046E000E056E36C000F037C092
:1001A00001F06DDF00C036F001C037F0000E01181D
:1001B00002E1000E001801E102D03A06CFD712008A
:0C01C000299036C03DF076DF2980120047
:1001CC00939A939893909392939493968A9A8A98ED
:1001DC008A968A948A928A903EDF3DDF3CDF8A823F
:1001EC008A808A8A43DF8A9A36DF8A8A3FDF8A9A34
:1001FC0032DF8A8A3BDF8A9A2EDF8A908A8A36DF40
:10020C008A9A29DF8A8A32DF8A9A8A928A868A8A2D
:10021C002DDF8A9A20DF8A968A808A8A27DF8A9A3B
:10022C008A908A8A23DF8A9A16DF8A8A1FDF8A9A43
:10023C008A808A8A1BDF8A9A0EDF8A908A8A16DF66
:10024C008A9A8A868A848A828A808A8A0FDF8A9A24
:06025C0002DF2980120000
:100262000900F5CFE6FF0006FBE10106F9E1120005
:100272000FD0800E2C6E19D0C00E2C6E16D0940E9C
:100282002C6E13D0D40E2C6E10D0800E2C6E0DD08E
:100292002C50010AEEE02C50020AEEE02C50030A28
:1002A200EEE02C50040AEEE0F0D72D04006E2C5044
:1002B200002600C02CF000C03DF0FBDE2990306A21
:1002C20030502E24E96E000E2F20EA6EEE520BE023
:1002D20030502E24E96E000E2F20EA6EEECF36F05B
:0A02E2006EDF302AEDD729801200EC
:1002EC00326A336A2CC034F02DC035F0800E2D18D4
:1002FC00006E800E005C02E1000E2C5C0BE2010E25
:10030C00326E000E336E2C500008346E2DC035F05A
:10031C00000E355634C036F035C037F02EC038F0EC
:10032C002FC039F0FFDE060E306E000E316E000E5F
:10033C00006E3150005C02E13050000819E2305080
:10034C002E24E16E31502F20E26E010E305C006ED7
:10035C00000E3158016E00502E24E96E01502F20F2
:10036C00EA6EEECFE6FF010E305E000E315ADFD79B
:10037C002EC0E1FF2FC0E2FF200EE66E325033108C
:10038C001AE0306A316A30502E24E96E31502F2039
:10039C00EA6EEE50200A03E1304A312AF4D7010EFE
:1003AC00305E000E315A30502E24E16E31502F2029
:0803BC00E26E2D0EE66E120048
:1003C4000B6A0A6A096A00500402F4CF09F0F3CFF9
:1003D40008F001500502F4CF0BF0F3CF0AF00050FF
:1003E4000502F3500926F4500A22E86A0B22015050
:1003F4000402F3500926F4500A22E86A0B2208C0CA
:1004040000F009C001F00AC002F00BC003F01200B2
:100414006EEC02F00F013881030EC26E210EC06E25
:10042400400E9D6E9E6AC00EF26E9694956A040EFE
:10043400486FFF0EBB6E0C0E546F070E516F556B59
:10044400C3DE010E3D6E34DE0C0E3D6E31DE010E58
:100454002C6E010E2D6E1E0E2E6E000E2F6E07DFFB
:10046400275028102EE0276A286A2AC000F02BC0E3
:1004740001F001320032019E01BC018E01320032D2
:10048400019E01BC018E00C055FF050E006E000EDA
:10049400016E2AC004F02BC005F092DF00C02CF0DE
:1004A40001C02DF0170E2E6E000E2F6E1DDF010EF3
:1004B4002C6E0B0E2D6E170E2E6E000E2F6ED7DEC9
:0604C400C282CED7FFD773
:1004DC0010EE17F0120E006E010E016ECA0EF66EC3
:0E04EC00040EF76E000EF86E31EC01F01200F7
:0704CA00000000000000002B
:0904D1005241305B6D565D3A00AA
:0204DA00000020
:020000040030CA
:0D000100231F3CFFBF81FF0FC00FE00F4029
:00000001FF
