:040000000FEF02F00C
:1000080000C016F001C015F09EAC22D09E9CC2B470
:1000180019D0C4CF2DF0000E2E6E2D362D902E3611
:100028002D362D902E36060E016EC3CF00F00150EE
:1000380004E00032009EFF0FFBD700502D12000E87
:100048002E1202D0C4CF2CF0010E296E000E2A6E9B
:0A00580016C000F015C001F0110001
:0A006200210E0D6E0D2EFED71200C8
:10006C000F0E0C6E470E0D6E0D2EFED70C2EFCD700
:06007C000000000012006C
:0600820000000000120066
:10008800086A096A100E0C6E0134083609360450E5
:10009800085E0550D8A0053C095ED8B007D00450CA
:1000A80008260550D8B0053C0926D89000360136F8
:0600B8000C2EEAD7120035
:1000BE0047BE02D08A9601D08A8647BC02D08A9467
:1000CE0001D08A8447BA02D08A9201D08A8247B878
:1000DE0002D08A9001D08A802BB002D08A8801D0BB
:1000EE008A988A8AC7DF8A9A47B602D08A9601D042
:1000FE008A8647B402D08A9401D08A8447B202D04D
:10010E008A9201D08A8247B002D08A9001D08A802A
:10011E002BB002D08A8801D08A988A8AABDF8A9A5D
:0C012E002BA002D09CDF01D095DF120056
:10013A00446A050E445C0AE244504224E16E000E11
:10014A004320E26E200EE66E442AF3D7445042243E
:10015A00E16E000E4320E26EE66A440644504224F1
:10016A00456E000E4320466E0A0E046E000E056EA2
:10017A0040C000F041C001F082DF08C000F009C0B1
:10018A0001F0300E002645C0E1FF46C0E2FF00C084
:10019A00E6FF0A0E046E000E056E40C000F041C074
:1001AA0001F06DDF00C040F001C041F0000E0118FF
:1001BA0002E1000E001801E102D04406CFD7120076
:0C01CA002B9040C047F076DF2B80120025
:1001D600939A939893909392939493968A9A8A98E3
:1001E6008A968A948A928A903EDF3DDF3CDF8A8235
:1001F6008A808A8A43DF8A9A36DF8A8A3FDF8A9A2A
:1002060032DF8A8A3BDF8A9A2EDF8A908A8A36DF35
:100216008A9A29DF8A8A32DF8A9A8A928A868A8A23
:100226002DDF8A9A20DF8A968A808A8A27DF8A9A31
:100236008A908A8A23DF8A9A16DF8A8A1FDF8A9A39
:100246008A808A8A1BDF8A9A0EDF8A908A8A16DF5C
:100256008A9A8A868A848A828A808A8A0FDF8A9A1A
:0602660002DF2B801200F4
:10026C000900F5CFE6FF0006FBE10106F9E11200FB
:10027C000FD0800E366E19D0C00E366E16D0940E7E
:10028C00366E13D0D40E366E10D0800E366E0DD066
:10029C003650010AEEE03650020AEEE03650030A00
:1002AC00EEE03650040AEEE0F0D73704006E36501C
:1002BC00002600C036F000C047F0FBDE2B903A6AF7
:1002CC003A503824E96E000E3920EA6EEE520BE0FB
:1002DC003A503824E96E000E3920EA6EEECF40F029
:0A02EC006EDF3A2AEDD72B801200D6
:1002F6003C6A3D6A36C03EF037C03FF0800E371884
:10030600006E800E005C02E1000E365C0BE2010E10
:100316003C6E000E3D6E365000083E6E37C03FF014
:10032600000E3F563EC040F03FC041F038C042F09C
:1003360039C043F0FFDE060E3A6E000E3B6E000E2D
:10034600006E3B50005C02E13A50000819E23A5058
:100356003824E16E3B503920E26E010E3A5C006EA5
:10036600000E3B58016E00503824E96E01503920CA
:10037600EA6EEECFE6FF010E3A5E000E3B5ADFD77D
:1003860038C0E1FF39C0E2FF200EE66E3C503D105A
:100396001AE03A6A3B6A3A503824E96E3B503920F3
:1003A600EA6EEE50200A03E13A4A3B2AF4D7010EE0
:1003B6003A5E000E3B5A3A503824E16E3B503920E3
:0803C600E26E2D0EE66E12003E
:1003CE000B6A0A6A096A00500402F4CF09F0F3CFEF
:1003DE0008F001500502F4CF0BF0F3CF0AF00050F5
:1003EE000502F3500926F4500A22E86A0B22015046
:1003FE000402F3500926F4500A22E86A0B2208C0C0
:10040E0000F009C001F00AC002F00BC003F01200A8
:10041E008AEC02F02F6A306A316A326A336A346AC1
:10042E00356A0F0138813883C294C296C298C29A37
:10043E00C29CC080C092C094C096C098C08AC09E14
:10044E00C2809D8C9E9CF28CF28EBEDE010E476E9B
:10045E002FDE0C0E476E2CDE010E366E010E376E41
:10046E00200E386E000E396E02DF020E366E010E51
:10047E00376E170E386E000E396EF9DEC2822950B5
:10048E002A1036E0296A2A6AC2B41CD0050E006E04
:10049E00000E016E2DC004F02EC005F091DF00C0DD
:1004AE0036F001C037F02F0E386E000E396E1CDF9D
:1004BE00010E366E0B0E376E2F0E386E000E396E25
:1004CE00D6DE14D0140E2C02F3CF36F0F4CF37F064
:1004DE002F0E386E000E396E07DF020E366E0B0EC3
:1004EE00376E2F0E386E000E396EC1DEC274C282A8
:0404FE00C6D7FFD787
:1005140010EE17F0120E006E010E016E020EF66E52
:0E052400050EF76E000EF86E36EC01F01200B8
:090502005241315B6D565D3A0077
:09050B005241305B6D565D3A006F
:020000040030CA
:0D000100231F3CFFBF81FF0FC00FE00F4029
:00000001FF
