:04000000ECEF01F030
:1000080000C017F001C016F002C015F0F2A423D00A
:10001800F294200E1826000E1922200E1C26000E1F
:100028001D22000E1A24016E030E1B20026E01C051
:100038001AF002C01BF0800E0218006E800E030A30
:10004800005C02E1E80E015C06E3184A192A1C4A22
:100058001D2A1A6A1B6A17C000F016C001F015C0E5
:0400680002F0110091
:06006C000000000012007C
:100072000F0E0C6E470E0D6E0D2EFED70C2EFCD7FA
:0600820000000000120066
:0A008800210E0D6E0D2EFED71200A2
:10009200086A096A100E0C6E0134083609360450DB
:1000A200085E0550D8A0053C095ED8B007D00450C0
:1000B20008260550D8B0053C0926D89000360136EE
:0600C2000C2EEAD712002B
:1000C8003CBE02D08A9601D08A863CBC02D08A9473
:1000D80001D08A843CBA02D08A9201D08A823CB884
:1000E80002D08A9001D08A801EB002D08A8801D0BE
:1000F8008A988A8AB7DF8A9A3CB602D08A9601D053
:100108008A863CB402D08A9401D08A843CB202D058
:100118008A9201D08A823CB002D08A9001D08A802B
:100128001EB002D08A8801D08A988A8A9BDF8A9A70
:0C0138001EA002D09ADF01D0A3DF12004D
:0C0144001E9035C03CF0BEDF1E80120093
:10015000396A050E395C0AE239503724E16E000E27
:100160003820E26E200EE66E392AF3D73950372454
:10017000E16E000E3820E26EE66A39063950372407
:100180003A6E000E38203B6E0A0E046E000E056EAD
:1001900035C000F036C001F07CDF08C000F009C0B7
:1001A00001F0300E00263AC0E1FF3BC0E2FF00C084
:1001B000E6FF0A0E046E000E056E35C000F036C074
:1001C00001F067DF00C035F001C036F0000E011805
:1001D00002E1000E001801E102D03906CFD712006B
:1001E000939A939893909392939493968A9A8A98D9
:1001F0008A968A948A928A903CDF3BDF3ADF8A8231
:100200008A808A8A33DF8A9A34DF8A8A2FDF8A9A41
:1002100030DF8A8A2BDF8A9A2CDF8A908A8A26DF4F
:100220008A9A27DF8A8A22DF8A9A8A928A868A8A2B
:100230001DDF8A9A1EDF8A968A808A8A17DF8A9A49
:100240008A908A8A13DF8A9A14DF8A8A0FDF8A9A51
:100250008A808A8A0BDF8A9A0CDF8A908A8A06DF74
:100260008A9A8A868A848A828A808A8AFFDE8A9A21
:0602700000DF1E801200F9
:100276000900F5CFE6FF0006FBE10106F9E11200F1
:100286000FD0800E2B6E19D0C00E2B6E16D0940E8A
:100296002B6E13D0D40E2B6E10D0800E2B6E0DD07D
:1002A6002B50010AEEE02B50020AEEE02B50030A17
:1002B600EEE02B50040AEEE0F0D72C04006E2B5033
:1002C600002600C02BF000C03CF0FBDE1E902F6A1B
:1002D6002F502D24E96E000E2E20EA6EEE520BE012
:1002E6002F502D24E96E000E2E20EA6EEECF35F04B
:0A02F60026DF2F2AEDD71E8012002C
:10030000316A326A2BC033F02CC034F0800E2C18C6
:10031000006E800E005C02E1000E2B5C0BE2010E11
:10032000316E000E326E2B500008336E2CC034F04C
:10033000000E345633C035F034C036F02DC037F0DF
:100340002EC038F005DF060E2F6E000E306E000E48
:10035000006E3050005C02E12F50000819E22F506F
:100360002D24E16E30502E20E26E010E2F5C006EC7
:10037000000E3058016E00502D24E96E01502E20E1
:10038000EA6EEECFE6FF010E2F5E000E305ADFD789
:100390002DC0E1FF2EC0E2FF200EE66E315032107C
:1003A0001AE02F6A306A2F502D24E96E30502E202B
:1003B000EA6EEE50200A03E12F4A302AF4D7010EEC
:1003C0002F5E000E305A2F502D24E16E30502E201B
:0803D000E26E2D0EE66E120034
:1003D800186A196A1A6A1B6A1C6A1D6A266A276AD9
:1003E800286A0F0E296E2A6A956A810E8C6EC70ECE
:1003F800D56EA00EF26E080E276E010E286EECDE8A
:10040800010E3C6E5DDE0C0E3C6E5ADE800E191835
:10041800006E800E005C02E1C80E185C38E32750BD
:100428000F0A06E128500F0A03E1010E266E07D0D5
:100438002750000A04E12850000AD8B4266A26503A
:10044800000A0AE1283628902732279E27BC278EE3
:10045800282A080E27260AD0273627902832289ED1
:1004680028BC288E2950271629502816040E016EFC
:1004780027C000F0015004E000360090FF0FFBD7C2
:10048800285000108C6EC80E185E000E195A800E87
:100498001D18006E800E030A005C02E1E80E1C5C69
:1004A80017E32A2A2AC02BF0000E2C6E1F0E2D6E81
:1004B800000E2E6E21DF010E2B6E0B0E2C6E1F0E02
:1004C8002D6E000E2E6EDBDEE80E1C5E030E1D5A2E
:0404D8009DD7FFD7D6
:020000040030CA
:0D000100231F3CFFBF81FF0FC00FE00F4029
:00000001FF
