:10000000C8EF00F00000000000EF00F0000000006A
:0A0010000000000000000000F3D71C
:10001C000134083609360450085E0550D8A0053C5A
:10002C00095E003601360F0E0C6E013408360936A7
:10003C00045000A006D0085E0550D8A0053C095E0F
:10004C0005D008260550D8B0053C092600360136E7
:10005C000C2EEBD700B006D0045008260550D8B0B3
:08006C00053C0926000012000A
:100074000450000A08E10550000A05E1FF0E006E75
:100084007F0E016E57D00D6A096A086A015000108C
:10009400D8B4000C015005180A6E0ABE0D1E0B6A76
:1000A40005AE05D0041E051E042AD8B4052A01AEE7
:1000B40005D0001E011E002AD8B4012A01500510E3
:1000C4000A6E0ABE10D0A8DF0BB020D00DAE000C13
:1000D400001E011E002AD8B4012A081E091E082A7F
:1000E400D8B4092A000C05AE0DD001BE07D00150CA
:1000F400096E0050086E016A006AE8D7016A006A56
:10010400002A000C011E001E0B2ADDD7082AD8B4D1
:10011400092A0450085CD8A4D9D70550095CD8A48E
:10012400D5D7096A086A002AD8B4012A01AECED705
:060134000000FF0C1200A8
:10013A00156A166A19C004F01AC005F0E80E006EB6
:10014A00030E016E92DF800E1618026E800E0118E1
:10015A00025C02E10050155C0DE2030E0C6E970E74
:10016A000D6E0D2EFED70C2EFCD700000000154A8E
:06017A00162AE0D7120076
:100180000900F5CFE6FF0006FBE10106F9E11200E8
:10019000156A166A010E176E186AFE0E926E898035
:1001A000FF0E956E0F013B6B83A002D08980FCD7B8
:1001B00083A205D0040E176E000E186E01D0899030
:1001C00083A405D0060E176E000E186E01D089901C
:1001D00083A605D0080E176E000E186E01D0899008
:1001E00083A805D00A0E176E000E186E01D08990F4
:1001F00083AA05D00C0E176E000E186E01D08990E0
:10020000897017C019F018C01AF097DFCDD7FFD743
:020000040030CA
:0D000100231F3CFFBF81FF0FC00FE00F4029
:00000001FF
