:040000000AEF02F011
:1000080000C016F001C015F09EAC1DD09E9CC4CF58
:1000180026F0000E276E263626902736263626909E
:100028002736060E016EC3CF00F0015004E00032FF
:10003800009EFF0FFBD700502626000E2722010E38
:10004800286E000E296E16C000F015C001F01100D0
:0A005800210E0D6E0D2EFED71200D2
:100062000F0E0C6E470E0D6E0D2EFED70C2EFCD70A
:0600720000000000120076
:0600780000000000120070
:10007E00086A096A100E0C6E0134083609360450EF
:10008E00085E0550D8A0053C095ED8B007D00450D4
:10009E0008260550D8B0053C0926D8900036013602
:0600AE000C2EEAD712003F
:1000B4003BBE02D08A9601D08A863BBC02D08A9489
:1000C40001D08A843BBA02D08A9201D08A823BB89A
:1000D40002D08A9001D08A8025B002D08A8801D0CB
:1000E4008A988A8AC7DF8A9A3BB602D08A9601D058
:1000F4008A863BB402D08A9401D08A843BB202D06F
:100104008A9201D08A823BB002D08A9001D08A8040
:1001140025B002D08A8801D08A988A8AABDF8A9A6D
:0C01240025A002D09CDF01D095DF120066
:10013000386A050E385C0AE238503624E16E000E4B
:100140003720E26E200EE66E382AF3D73850362478
:10015000E16E000E3720E26EE66A3806385036242B
:10016000396E000E37203A6E0A0E046E000E056ED0
:1001700034C000F035C001F082DF08C000F009C0D3
:1001800001F0300E002639C0E1FF3AC0E2FF00C0A6
:10019000E6FF0A0E046E000E056E34C000F035C096
:1001A00001F06DDF00C034F001C035F0000E011821
:1001B00002E1000E001801E102D03806CFD712008C
:0C01C000259034C03BF076DF2580120053
:1001CC00939A939893909392939493968A9A8A98ED
:1001DC008A968A948A928A903EDF3DDF3CDF8A823F
:1001EC008A808A8A43DF8A9A36DF8A8A3FDF8A9A34
:1001FC0032DF8A8A3BDF8A9A2EDF8A908A8A36DF40
:10020C008A9A29DF8A8A32DF8A9A8A928A868A8A2D
:10021C002DDF8A9A20DF8A968A808A8A27DF8A9A3B
:10022C008A908A8A23DF8A9A16DF8A8A1FDF8A9A43
:10023C008A808A8A1BDF8A9A0EDF8A908A8A16DF66
:10024C008A9A8A868A848A828A808A8A0FDF8A9A24
:06025C0002DF2580120004
:100262000900F5CFE6FF0006FBE10106F9E1120005
:100272000FD0800E2A6E19D0C00E2A6E16D0940EA0
:100282002A6E13D0D40E2A6E10D0800E2A6E0DD094
:100292002A50010AEEE02A50020AEEE02A50030A2E
:1002A200EEE02A50040AEEE0F0D72B04006E2A504A
:1002B200002600C02AF000C03BF0FBDE25902E6A2B
:1002C2002E502C24E96E000E2D20EA6EEE520BE029
:1002D2002E502C24E96E000E2D20EA6EEECF34F063
:0A02E2006EDF2E2AEDD725801200F2
:1002EC00306A316A2AC032F02BC033F0800E2B18E2
:1002FC00006E800E005C02E1000E2A5C0BE2010E27
:10030C00306E000E316E2A500008326E2BC033F066
:10031C00000E335632C034F033C035F02CC036F0FA
:10032C002DC037F0FFDE060E2E6E000E2F6E000E67
:10033C00006E2F50005C02E12E50000819E22E5086
:10034C002C24E16E2F502D20E26E010E2E5C006EDF
:10035C00000E2F58016E00502C24E96E01502D20F8
:10036C00EA6EEECFE6FF010E2E5E000E2F5ADFD79F
:10037C002CC0E1FF2DC0E2FF200EE66E3050311094
:10038C001AE02E6A2F6A2E502C24E96E2F502D2045
:10039C00EA6EEE50200A03E12E4A2F2AF4D7010E02
:1003AC002E5E000E2F5A2E502C24E16E2F502D2035
:0803BC00E26E2D0EE66E120048
:1003C4000B6A0A6A096A00500402F4CF09F0F3CFF9
:1003D40008F001500502F4CF0BF0F3CF0AF00050FF
:1003E4000502F3500926F4500A22E86A0B22015050
:1003F4000402F3500926F4500A22E86A0B2208C0CA
:1004040000F009C001F00AC002F00BC003F01200B2
:10041400176A186A196A1A6A1B6A1C6A1D6A640ECA
:100424001E6E5B0E1F6E6D0E206E6D0E216E5D0EC8
:10043400226E3A0E236E246A0F013A87949C8B8CA9
:10044400956AC284C286C288C28AC29CC080C09295
:10045400C094C096C098C08AC09EC2809D8C9E9C49
:10046400F28CF28EB1DE010E3B6E22DE0C0E3B6E80
:100474001FDE010E2A6E010E2B6E1E0E2C6E000E58
:100484002D6EF5DEC282285029101EE0286A296AE2
:10049400050E006E000E016E26C004F027C005F0A4
:1004A4008FDF00C02AF001C02BF0170E2C6E000E57
:1004B4002D6E1ADF010E2A6E0B0E2B6E170E2C6E8C
:0C04C400000E2D6ED4DEC282DED7FFD702
:020000040030CA
:0D000100231F3CFFBF81FF0FC00FE00F4029
:00000001FF
