:04000000BBEF00F062
:1000080000C015F0F2A021D081AE0FD0800E1718D5
:10001800006E800E030A005C02E1E80E165C05E241
:10002800640E1626000E17220FD081AC0DD0800E5C
:10003800006E800E1718005C02E11650320804E2C8
:10004800640E165E000E175AF29015C000F01100EB
:10005800220E0C6E086A096A0A6A0B6A0C06D8B482
:100068001FD0D8900B320A320932083203320232DA
:1000780001320032D8A0F2D70C06D8B409D0045007
:1000880008260550092206500A2207500B22EAD7F3
:10009800045008260550092206500A2207500B2250
:0200A800120044
:1000AA00D00E1B6E070E1C6E000E1D6E1E6ED00E3D
:1000BA00006E070E016E000E026E000E036E19C06E
:1000CA0004F01AC005F0000E066E076EC0DF00C00D
:1000DA001BF001C01CF002C01DF003C01EF0000E90
:1000EA00035C08E1000E025C05E1020E015C02E11C
:1000FA00940E005C01E231D0940E1B5E020E1C5A73
:10010A00000E1D5A1E5A050E006E005007E01E32E0
:10011A001D321C321B321E9EFF0FF8D71BC000F087
:10012A001CC001F01DC002F01EC003F0010E1B5ED0
:10013A00000E1C5A1D5A1E5A0050011002100310BC
:10014A000CE00000000000000000000000000000B9
:0C015A000000000000000000E1D71200CF
:100166000900F5CFE6FF0006FBE10106F9E1120002
:10017600FA0E166E176A186AC00E936E3F0E0F01BE
:10018600396FC00E626E880EF26E956A010E8C6E25
:100196008C50800A03E1010E186E04D08C50010ABF
:1001A600D8B4186A185207E18CCF00F000360090D8
:1001B60000C08CFF06D08CCF00F00032009E00C03D
:1001C6008CFF16C019F017C01AF06CDFE1D7FFD705
:020000040030CA
:0D000100231F3CFFBF81FF0FC00FE00F4029
:00000001FF
