:040000003BEF00F0E2
:1000080000C015F0F2A021D081AE0FD0800E1718D5
:10001800006E800E030A005C02E1E80E165C05E241
:10002800640E1626000E17220FD081AC0DD0800E5C
:10003800006E800E1718005C02E11650320804E2C8
:10004800640E165E000E175AF290F2A405D0200E28
:0E0058001826000E1922F29415C000F01100B7
:100066000900F5CFE6FF0006FBE10106F9E1120003
:10007600640E166E176A186A196A1A6AC00E936EAB
:100086003F0E0F01396FC00E626EA80EF26E956AB2
:10009600010E8C6EC70ED56E060ED66E8C50800A7B
:1000A60003E1010E1A6E04D08C50010AD8B41A6A04
:1000B600800E1718006E800E1918005C02E11850A9
:1000C600165C11E21A5207E18CCF00F00036009060
:1000D60000C08CFF06D08CCF00F00032009E00C01E
:0A00E6008CFF186A196ADAD7FFD7F9
:020000040030CA
:0D000100231F3CFFBF81FF0FC00FE00F4029
:00000001FF
