:0400000010EF02F00B
:1000080000C017F001C016F002C015F0F2A424D009
:10001800F294200E1A26000E1B22200E1E26000E19
:100028001F22000E1C24016E030E1D20026E01C04B
:100038001CF002C01DF0800E0218006E800E030A2C
:10004800005C02E1E80E015C06E31A4A1B2A1E4A1C
:100058001F2A1C6A1D6A23D0F2A021D081AE0FD0BE
:10006800800E1918006E800E030A005C02E1E80E8B
:10007800185C05E2320E1826000E19220FD081AC4A
:100088000DD0800E006E800E1918005C02E1185029
:10009800320804E2320E185E000E195AF29017C0A8
:0C00A80000F016C001F015C002F01100BD
:0600B40000000000120034
:1000BA000F0E0C6E470E0D6E0D2EFED70C2EFCD7B2
:0600CA000000000012001E
:0A00D000210E0D6E0D2EFED712005A
:1000DA00086A096A100E0C6E013408360936045093
:1000EA00085E0550D8A0053C095ED8B007D0045078
:1000FA0008260550D8B0053C0926D89000360136A6
:06010A000C2EEAD71200E2
:100110003BBE02D08A9601D08A863BBC02D08A942C
:1001200001D08A843BBA02D08A9201D08A823BB83D
:1001300002D08A9001D08A8021B002D08A8801D072
:100140008A988A8AB7DF8A9A3BB602D08A9601D00B
:100150008A863BB402D08A9401D08A843BB202D012
:100160008A9201D08A823BB002D08A9001D08A80E4
:1001700021B002D08A8801D08A988A8A9BDF8A9A25
:0C01800021A002D09ADF01D0A3DF120002
:0C018C00219034C03BF0BEDF2180120047
:10019800386A050E385C0AE238503624E16E000EE3
:1001A8003720E26E200EE66E382AF3D73850362410
:1001B800E16E000E3720E26EE66A380638503624C3
:1001C800396E000E37203A6E0A0E046E000E056E68
:1001D80034C000F035C001F07CDF08C000F009C071
:1001E80001F0300E002639C0E1FF3AC0E2FF00C03E
:1001F800E6FF0A0E046E000E056E34C000F035C02E
:1002080001F067DF00C034F001C035F0000E0118BE
:1002180002E1000E001801E102D03806CFD7120023
:10022800939A939893909392939493968A9A8A9890
:100238008A968A948A928A903CDF3BDF3ADF8A82E8
:100248008A808A8A33DF8A9A34DF8A8A2FDF8A9AF9
:1002580030DF8A8A2BDF8A9A2CDF8A908A8A26DF07
:100268008A9A27DF8A8A22DF8A9A8A928A868A8AE3
:100278001DDF8A9A1EDF8A968A808A8A17DF8A9A01
:100288008A908A8A13DF8A9A14DF8A8A0FDF8A9A09
:100298008A808A8A0BDF8A9A0CDF8A908A8A06DF2C
:1002A8008A9A8A868A848A828A808A8AFFDE8A9AD9
:0602B80000DF21801200AE
:1002BE000900F5CFE6FF0006FBE10106F9E11200A9
:1002CE000FD0800E2A6E19D0C00E2A6E16D0940E44
:1002DE002A6E13D0D40E2A6E10D0800E2A6E0DD038
:1002EE002A50010AEEE02A50020AEEE02A50030AD2
:1002FE00EEE02A50040AEEE0F0D72B04006E2A50EE
:10030E00002600C02AF000C03BF0FBDE21902E6AD2
:10031E002E502C24E96E000E2D20EA6EEE520BE0CC
:10032E002E502C24E96E000E2D20EA6EEECF34F006
:0A033E0026DF2E2AEDD721801200E1
:10034800306A316A2AC032F02BC033F0800E2B1885
:10035800006E800E005C02E1000E2A5C0BE2010ECA
:10036800306E000E316E2A500008326E2BC033F00A
:10037800000E335632C034F033C035F02CC036F09E
:100388002DC037F005DF060E2E6E000E2F6E000E04
:10039800006E2F50005C02E12E50000819E22E502A
:1003A8002C24E16E2F502D20E26E010E2E5C006E83
:1003B800000E2F58016E00502C24E96E01502D209C
:1003C800EA6EEECFE6FF010E2E5E000E2F5ADFD743
:1003D8002CC0E1FF2DC0E2FF200EE66E3050311038
:1003E8001AE02E6A2F6A2E502C24E96E2F502D20E9
:1003F800EA6EEE50200A03E12E4A2F2AF4D7010EA6
:100408002E5E000E2F5A2E502C24E16E2F502D20D8
:08041800E26E2D0EE66E1200EB
:10042000FA0E186E196A1A6A1B6A1C6A1D6A1E6A1D
:100430001F6A206A296AC00E936E3F0E0F01396F42
:10044000C00E626EA80EF26E956A010E8C6EC70E1B
:10045000D56EEADE010E3B6E5BDE0C0E3B6E58DEA7
:10046000800E1B18006E800E1918005C02E11850F7
:100470001A5C1DE38C50800A03E1010E296E04D042
:100480008C50010AD8B4296A295207E18CCF00F0B8
:100490000036009000C08CFF06D08CCF00F00032F8
:1004A000009E00C08CFF18501A5E19501B5A800E17
:1004B0001F18006E800E1918005C02E118501E5CB7
:1004C00019E3202A20C02AF0000E20BEFF0E2B6E5A
:1004D000220E2C6E000E2D6E37DF010E2A6E0B0ED3
:1004E0002B6E220E2C6E000E2D6EF1DE18501E5E4D
:0804F00019501F5AB5D7FFD7C0
:020000040030CA
:0D000100231F3CFFBF81FF0FC00FE00F4029
:00000001FF
