:1000000016EF00F00000000000EF00F0000000001C
:0A0010000000000000000000F3D71C
:10001C000900F5CFE6FF0006FBE10106F9E112004D
:10002C00156A956A010E8C6E8C50800A03E1010EE4
:10003C00156E04D08C50010AD8B4156A1550000AFC
:10004C0007E18CCF00F00036009000C08CFF09D087
:10005C001550010A06E18CCF00F00032009E00C062
:10006C008CFF030E0B6E8A0E0C6E550E0D6E0D2E44
:10007C00FED70C2EFCD70B2EFAD700000000D4D7DD
:02008C00FFD79C
:020000040030CA
:0D000100231F3CFFBF81FF0FC00FE00F4029
:00000001FF
