:04000000EBEF01F031
:1000080000C016F001C015F09EAC1AD09E9CC4CF5B
:100018002DF02D362D902D362D90060E016EC3CF66
:1000280000F0015004E00032009EFF0FFBD70050A3
:100038002D12010E176E8C50010F006E00C08CFF40
:0A00480016C000F015C001F0110011
:0A005200210E0D6E0D2EFED71200D8
:10005C000F0E0C6E470E0D6E0D2EFED70C2EFCD710
:06006C000000000012007C
:0600720000000000120076
:10007800086A096A100E0C6E0134083609360450F5
:10008800085E0550D8A0053C095ED8B007D00450DA
:1000980008260550D8B0053C0926D8900036013608
:0600A8000C2EEAD7120045
:1000AE0050BE02D08A9601D08A8650BC02D08A9465
:1000BE0001D08A8450BA02D08A9201D08A8250B876
:1000CE0002D08A9001D08A802EB002D08A8801D0C8
:1000DE008A988A8AC7DF8A9A50B602D08A9601D049
:1000EE008A8650B402D08A9401D08A8450B202D04B
:1000FE008A9201D08A8250B002D08A9001D08A8032
:10010E002EB002D08A8801D08A988A8AABDF8A9A6A
:0C011E002EA002D09CDF01D095DF120063
:10012A004D6A050E4D5C0AE24D504B24E16E000EFD
:10013A004C20E26E200EE66E4D2AF3D74D504B242A
:10014A00E16E000E4C20E26EE66A4D064D504B24DD
:10015A004E6E000E4C204F6E0A0E046E000E056E97
:10016A0049C000F04AC001F082DF08C000F009C0AF
:10017A0001F0300E00264EC0E1FF4FC0E2FF00C082
:10018A00E6FF0A0E046E000E056E49C000F04AC072
:10019A0001F06DDF00C049F001C04AF0000E0118FD
:1001AA0002E1000E001801E102D04D06CFD712007D
:0C01BA002E9049C050F076DF2E8012001D
:1001C600939A939893909392939493968A9A8A98F3
:1001D6008A968A948A928A903EDF3DDF3CDF8A8245
:1001E6008A808A8A43DF8A9A36DF8A8A3FDF8A9A3A
:1001F60032DF8A8A3BDF8A9A2EDF8A908A8A36DF46
:100206008A9A29DF8A8A32DF8A9A8A928A868A8A33
:100216002DDF8A9A20DF8A968A808A8A27DF8A9A41
:100226008A908A8A23DF8A9A16DF8A8A1FDF8A9A49
:100236008A808A8A1BDF8A9A0EDF8A908A8A16DF6C
:100246008A9A8A868A848A828A808A8A0FDF8A9A2A
:0602560002DF2E80120001
:10025C000900F5CFE6FF0006FBE10106F9E112000B
:10026C000FD0800E3F6E19D0C00E3F6E16D0940E7C
:10027C003F6E13D0D40E3F6E10D0800E3F6E0DD05B
:10028C003F50010AEEE03F50020AEEE03F50030AF5
:10029C00EEE03F50040AEEE0F0D74004006E3F5011
:1002AC00002600C03FF000C050F0FBDE2E90436AE9
:1002BC0043504124E96E000E4220EA6EEE520BE0F0
:1002CC0043504124E96E000E4220EA6EEECF49F015
:0A02DC006EDF432AEDD72E801200DA
:1002E6000050040204BEF45E045000BEF45EF3CF78
:0802F60000F0F4CF01F012004A
:1002FE00456A466A3FC047F040C048F0800E40183D
:10030E00006E800E005C02E1000E3F5C0BE2010EFF
:10031E00456E000E466E3F500008476E40C048F0D6
:10032E00000E485647C049F048C04AF041C04BF055
:10033E0042C04CF0F3DE060E436E000E446E000E0D
:10034E00006E4450005C02E14350000819E2435035
:10035E004124E16E44504220E26E010E435C006E79
:10036E00000E4458016E00504124E96E01504220A7
:10037E00EA6EEECFE6FF010E435E000E445ADFD763
:10038E0041C0E1FF42C0E2FF200EE66E455046102E
:10039E001AE0436A446A43504124E96E44504220B5
:1003AE00EA6EEE50200A03E1434A442AF4D7010EC6
:1003BE00435E000E445A43504124E16E44504220A5
:0803CE00E26E2D0EE66E120036
:1003D600ADEC02F02F6A306A316A326A336A346AE7
:1003E600356A366A376A386A396A3A6A3B6A3C6AF3
:1003F6003D6AF10E0F01386F928292849286956A59
:10040600C294C296C298C29AC29CC080C092C0943E
:10041600C096C098C08AC09EC2809D8C9E9CF28C5D
:10042600F28ECEDE010E506E3FDE0C0E506E3CDEBE
:10043600010E3F6E010E406E220E416E000E426EA0
:1004460012DF020E3F6E010E406E180E416E000E58
:10045600426E09DF3E1C006E00508014016E01A63C
:1004660014D02F2A3E862FC03FF0000E406E300E6D
:10047600416E000E426E40DF010E3F6E0B0E406E67
:10048600300E416E000E426EEEDE3E1C006E0050D7
:100496008014016E01A214D02F063E822FC03FF0B9
:1004A600000E406E300E416E000E426E25DF010ECC
:1004B6003F6E0B0E406E300E416E000E426ED3DE66
:1004C6003E1C006E00508014016E01A412D02F6AEB
:1004D6003E843F6A406A300E416E000E426E0CDF6B
:1004E600010E3F6E0B0E406E300E416E000E426ED8
:1004F600BADE80503E16175218E0176A2DC000F07B
:10050600050E046EEDDE00C03FF001C040F0370E70
:10051600416E000E426EF0DE020E3F6E0B0E406E16
:0E052600370E416E000E426E9EDE94D7FFD758
:10055A0010EE17F0160E006E010E016E340EF66ED6
:0E056A00050EF76E000EF86E2EEC01F012007A
:0105340000C6
:0A05350074656E73696F6E653A001D
:0B053F00636F6E74656767696F3A00B8
:01054A0000B0
:07054B0000000000000000A9
:0705520000000000000000A2
:020000040030CA
:0D000100231F3CFFBF81FF0FC00FE00F4029
:00000001FF
