:040000000AEF02F011
:1000080000C016F001C015F09EAC1DD09E9CC4CF58
:1000180022F0000E236E22362290233622362290BA
:100028002336060E016EC3CF00F0015004E0003203
:10003800009EFF0FFBD700502212000E2312010E64
:100048001D6E000E1E6E16C000F015C001F01100E6
:0A005800210E0D6E0D2EFED71200D2
:100062000F0E0C6E470E0D6E0D2EFED70C2EFCD70A
:0600720000000000120076
:0600780000000000120070
:10007E00086A096A100E0C6E0134083609360450EF
:10008E00085E0550D8A0053C095ED8B007D00450D4
:10009E0008260550D8B0053C0926D8900036013602
:0600AE000C2EEAD712003F
:1000B4003CBE02D08A9601D08A863CBC02D08A9487
:1000C40001D08A843CBA02D08A9201D08A823CB898
:1000D40002D08A9001D08A8021B002D08A8801D0CF
:1000E4008A988A8AC7DF8A9A3CB602D08A9601D057
:1000F4008A863CB402D08A9401D08A843CB202D06D
:100104008A9201D08A823CB002D08A9001D08A803F
:1001140021B002D08A8801D08A988A8AABDF8A9A71
:0C01240021A002D09CDF01D095DF12006A
:10013000396A050E395C0AE239503724E16E000E47
:100140003820E26E200EE66E392AF3D73950372474
:10015000E16E000E3820E26EE66A39063950372427
:100160003A6E000E38203B6E0A0E046E000E056ECD
:1001700035C000F036C001F082DF08C000F009C0D1
:1001800001F0300E00263AC0E1FF3BC0E2FF00C0A4
:10019000E6FF0A0E046E000E056E35C000F036C094
:1001A00001F06DDF00C035F001C036F0000E01181F
:1001B00002E1000E001801E102D03906CFD712008B
:0C01C000219035C03CF076DF2180120059
:1001CC00939A939893909392939493968A9A8A98ED
:1001DC008A968A948A928A903EDF3DDF3CDF8A823F
:1001EC008A808A8A43DF8A9A36DF8A8A3FDF8A9A34
:1001FC0032DF8A8A3BDF8A9A2EDF8A908A8A36DF40
:10020C008A9A29DF8A8A32DF8A9A8A928A868A8A2D
:10021C002DDF8A9A20DF8A968A808A8A27DF8A9A3B
:10022C008A908A8A23DF8A9A16DF8A8A1FDF8A9A43
:10023C008A808A8A1BDF8A9A0EDF8A908A8A16DF66
:10024C008A9A8A868A848A828A808A8A0FDF8A9A24
:06025C0002DF2180120008
:100262000900F5CFE6FF0006FBE10106F9E1120005
:100272000FD0800E2B6E19D0C00E2B6E16D0940E9E
:100282002B6E13D0D40E2B6E10D0800E2B6E0DD091
:100292002B50010AEEE02B50020AEEE02B50030A2B
:1002A200EEE02B50040AEEE0F0D72C04006E2B5047
:1002B200002600C02BF000C03CF0FBDE21902F6A2C
:1002C2002F502D24E96E000E2E20EA6EEE520BE026
:1002D2002F502D24E96E000E2E20EA6EEECF35F05F
:0A02E2006EDF2F2AEDD721801200F5
:1002EC00316A326A2BC033F02CC034F0800E2C18DB
:1002FC00006E800E005C02E1000E2B5C0BE2010E26
:10030C00316E000E326E2B500008336E2CC034F060
:10031C00000E345633C035F034C036F02DC037F0F3
:10032C002EC038F0FFDE060E2F6E000E306E000E63
:10033C00006E3050005C02E12F50000819E22F5083
:10034C002D24E16E30502E20E26E010E2F5C006EDB
:10035C00000E3058016E00502D24E96E01502E20F5
:10036C00EA6EEECFE6FF010E2F5E000E305ADFD79D
:10037C002DC0E1FF2EC0E2FF200EE66E3150321090
:10038C001AE02F6A306A2F502D24E96E30502E203F
:10039C00EA6EEE50200A03E12F4A302AF4D7010E00
:1003AC002F5E000E305A2F502D24E16E30502E202F
:0803BC00E26E2D0EE66E120048
:1003C4000B6A0A6A096A00500402F4CF09F0F3CFF9
:1003D40008F001500502F4CF0BF0F3CF0AF00050FF
:1003E4000502F3500926F4500A22E86A0B22015050
:1003F4000402F3500926F4500A22E86A0B2208C0CA
:1004040000F009C001F00AC002F00BC003F01200B2
:10041400560E176E5B0E186E6D0E196E560E1A6E12
:100424005D0E1B6E1C6A246A256A266A276A286A7E
:10043400296A2A6A0F013881C294C296C298C29A64
:10044400C29CC080C092C094C096C098C08AC09E0E
:10045400C2809D8C9E9CF28CF28EB6DE010E3C6EA8
:1004640027DE0C0E3C6E24DE010E2B6E010E2C6E6C
:10047400170E2D6E000E2E6EFADEC2821D501E1057
:1004840022E01D6A1E6A050E006E000E016E22C077
:1004940004F023C005F094DF00C01FF001C020F079
:1004A40000C02BF001C02CF0240E2D6E000E2E6E19
:1004B4001BDF010E2B6E0B0E2C6E240E2D6E000E08
:0A04C4002E6ED5DEC282DAD7FFD714
:020000040030CA
:0D000100231F3CFFBF81FF0FC00FE00F4029
:00000001FF
