:0400000084EF02F097
:1000080000C017F001C016F002C015F080A60FD08E
:10001800800E1918006E800E030A005C02E1E80EDB
:10002800185C05E2140E1826000E19220FD080A8BD
:100038000DD0800E006E800E1918005C02E1185079
:10004800140804E2140E185E000E195A80A404D095
:10005800236A010E226E0AD080A204D0010E236EFC
:10006800226A04D080A002D0236A226AF2A423D094
:10007800F294080E1E26000E1F22080E1A26000EE5
:100088001B22C00E1C24016E000E1D20026E01C032
:100098001CF002C01DF0800E0218006E800E030ACC
:1000A800005C02E1E80E015C06E31E4A1F2A1A4AB8
:1000B8001B2A1C6A1D6A17C000F016C001F015C083
:0400C80002F0110031
:0600CC000000000012001C
:1000D2000F0E0C6E470E0D6E0D2EFED70C2EFCD79A
:0600E20000000000120006
:0A00E800210E0D6E0D2EFED7120042
:1000F200086A096A100E0C6E01340836093604507B
:10010200085E0550D8A0053C095ED8B007D004505F
:1001120008260550D8B0053C0926D890003601368D
:060122000C2EEAD71200CA
:10012800000163BF02D08A9601D08A8663BD02D0DF
:100138008A9401D08A8463BB02D08A9201D08A82D1
:1001480063B902D08A9001D08A8024B002D08A880C
:1001580001D08A988A8AB6DF8A9A63B702D08A96CB
:1001680001D08A8663B502D08A9401D08A8463B3A9
:1001780002D08A9201D08A8263B102D08A9001D0DB
:100188008A8024B002D08A8801D08A988A8A9ADF25
:0E0198008A9A24A002D099DF01D0A2DF1200C3
:1001A6000001606B050E605D0AE260515E24E16E3F
:1001B600000E5F20E26E200EE66E602BF3D76051D4
:1001C6005E24E16E000E5F20E26EE66A6007605113
:1001D6005E24616F000E5F20626F0A0E046E000ED1
:1001E600056E5CC000F05DC001F080DF08C000F065
:1001F60009C001F0300E002661C0E1FF62C0E2FFD7
:1002060000C0E6FF0A0E046E000E056E5CC000F02C
:100216005DC001F06BDF00C05CF001C05DF0000E58
:10022600011802E1000E001801E102D06007CFD7E5
:020236001200B4
:0C02380024905CC063F074DF248012008E
:10024400586A596A52C05AF053C05BF0800E531872
:10025400006E800E005C02E1000E525C0BE2010EA7
:10026400586E000E596E525000085A6E53C05BF01F
:10027400000E5B565AC05CF05BC05DF054C05EF08B
:1002840055C05FF08EDF060E566E000E576E000EE0
:10029400006E5750005C02E15650000819E25650B7
:1002A4005424E16E57505520E26E010E565C006EE8
:1002B400000E5758016E00505424E96E0150552029
:1002C400EA6EEECFE6FF010E565E000E575ADFD7F8
:1002D40054C0E1FF55C0E2FF200EE66E585059109D
:1002E4001AE0566A576A56505424E96E57505520FE
:1002F400EA6EEE50200A03E1564A572AF4D7010E5B
:10030400565E000E575A56505424E16E57505520ED
:08031400E26E2D0EE66E1200F0
:10031C000900F5CFE6FF0006FBE10106F9E112004A
:10032C00939A939893909392939493968A9A8A988B
:10033C008A968A948A928A90C6DEC5DEC4DE8A8248
:10034C008A808A8ABDDE8A9ABEDE8A8AB9DE8A9A59
:10035C00BADE8A8AB5DE8A9AB6DE8A908A8AB0DEDE
:10036C008A9AB1DE8A8AACDE8A9A8A928A868A8ACC
:10037C00A7DE8A9AA8DE8A968A808A8AA1DE8A9A61
:10038C008A908A8A9DDE8A9A9EDE8A8A99DE8A9A69
:10039C008A808A8A95DE8A9A96DE8A908A8A90DE8C
:1003AC008A9A8A868A848A828A808A8A89DE8A9A4A
:0603BC008ADE248012001D
:1003C2000FD0800E526E19D0C00E526E16D0940EFF
:1003D200526E13D0D40E526E10D0800E526E0DD0CB
:1003E2005250010AEEE05250020AEEE05250030A65
:1003F200EEE05250040AEEE0F0D75304006E525081
:10040200002600C052F000C063F08DDE2490566AD0
:1004120056505424E96E000E5520EA6EEE520BE05F
:1004220056505424E96E000E5520EA6EEECF5CF071
:0A04320002DF562AEDD724801200E5
:10043C0052C004F053C005F004C0E9FF05C0EAFF48
:10044C00EE5203E0044A052AF7D704C002F005C0B7
:10045C0003F0044A052A54C000F055C001F0544A78
:10046C00552A00C0E9FF01C0EAFF02C0E1FF03C04A
:10047C00E2FFEECFE6FF02C0E9FF03C0EAFFEE5257
:0E048C0001E0E3D752C000F053C001F01200AF
:10049A00546A556A52C003F053C004F052C005F0C2
:1004AA0053C006F003C0E9FF04C0EAFFEE50200A79
:1004BA0004E15450551001E110D0010E546E000EA3
:1004CA00556E03C0E9FF04C0EAFF05C0E1FF06C09C
:1004DA00E2FFEECFE6FF054A062A03C001F004C098
:1004EA0002F0034A042A01C0E9FF02C0EAFFEE5003
:0E04FA00000AD8E152C000F053C001F0120019
:10050800DFEC03F0840EF66E070EF76E000EF86E41
:10051800250EE16E000EE26E2D0E006E010E016ECC
:10052800F9DE956A810E8C6E1F0E926EE00E0F0139
:10053800386FC60ED56EA00EF26E080E266E010E2E
:10054800276EF0DE010E0001636FEADD0C0E636FAB
:10055800E7DD800E1F18006E800E1918005C02E19E
:1005680018501E5C38E326500F0A06E127500F0A80
:1005780003E1010E256E07D02650000A04E127503A
:10058800000AD8B4256A2550000A0AE127362790C0
:100598002632269E26BC268E272A080E26260AD014
:1005A800263626902732279E27BC278E28502616C7
:1005B80028502716040E016E26C000F0015004E0F2
:1005C80000360090FF0FFBD7275000108C6E185094
:1005D8001E5E19501F5A800E1B18006E800E005C9C
:1005E80002E1080E1A5CD8A0C7D02252D8A498D02D
:1005F8002352D8A495D01A504A24016E1B504B2080
:10060800026E01C04AF002C04BF0800E0218006E64
:10061800800E030A005C02E1E80E015C1EE34A6AF0
:100628004B6A4C4A4D2A800E4D18006E800E005CB5
:1006380002E13C0E4C5C11E34C6A4D6A4E4A4F2A6B
:10064800800E4F18006E800E005C02E13C0E4E5C7E
:1006580004E34E6A4F6A504A512A030E486E000E50
:10066800496E800E4918006E800E005C02E1000E93
:10067800485C38E348C000F049C001F000360090FB
:1006880001364A0E0024E96E000E0120EA6EEECF14
:1006980052F0EECF53F0290E546E000E556ECEDD9B
:1006A800290E526E000E536EF4DE00C054F001C0E5
:1006B80055F0300E526E000E536EBCDE000E491817
:1006C80002E1000E481809E0300E526E000E536E1B
:1006D800200E546E000E556EADDE010E485E000E03
:1006E800495ABFD7010E526E090E536E300E546E22
:1006F800000E556E62DE486A496A800E4918006E1F
:10070800800E005C02E1110E485C0AE2300E4824BB
:10071800E16E000E4920E26EE66A484A492AEDD7A2
:10072800225226E0486A496A800E4918006E800EF7
:10073800005C02E1040E485C12E248C000F049C0C7
:1007480001F00036009001364A0E0024E16E000EDA
:100758000120E26EE66AE66A484A492AE5D7010EB0
:10076800526E090E536E410E546E000E556E25DE04
:0C077800080E1A5E000E1B5AECD6FFD7CC
:1007BE0010EE18F00C0E006E010E016EB10EF66EFC
:0E07CE00070EF76E000EF86E8EEC01F01200B2
:010784000074
:010785000073
:010786000072
:010787000F62
:07078800000000000000006A
:10078F00000000000000000000000000000000005A
:01079F000059
:0707A000303A303A303A30E4
:0207A700000050
:0807A900000000000000000048
:0207B100C8007E
:0207B300000044
:0207B500000042
:0207B700000040
:0207B9003A0004
:0107BB00003D
:0107BC00003C
:020000040030CA
:0D000100231F3CFFBF81FF0FC00FE00F4029
:00000001FF
